{
  "_format": "hh-sol-artifact-1",
  "contractName": "AuctionNFT",
  "sourceName": "contracts/AuctionNFT.sol",
  "abi": [
    {
      "inputs": [],
      "stateMutability": "nonpayable",
      "type": "constructor"
    },
    {
      "inputs": [
        {
          "internalType": "address",
          "name": "sender",
          "type": "address"
        },
        {
          "internalType": "uint256",
          "name": "tokenId",
          "type": "uint256"
        },
        {
          "internalType": "address",
          "name": "owner",
          "type": "address"
        }
      ],
      "name": "ERC721IncorrectOwner",
      "type": "error"
    },
    {
      "inputs": [
        {
          "internalType": "address",
          "name": "operator",
          "type": "address"
        },
        {
          "internalType": "uint256",
          "name": "tokenId",
          "type": "uint256"
        }
      ],
      "name": "ERC721InsufficientApproval",
      "type": "error"
    },
    {
      "inputs": [
        {
          "internalType": "address",
          "name": "approver",
          "type": "address"
        }
      ],
      "name": "ERC721InvalidApprover",
      "type": "error"
    },
    {
      "inputs": [
        {
          "internalType": "address",
          "name": "operator",
          "type": "address"
        }
      ],
      "name": "ERC721InvalidOperator",
      "type": "error"
    },
    {
      "inputs": [
        {
          "internalType": "address",
          "name": "owner",
          "type": "address"
        }
      ],
      "name": "ERC721InvalidOwner",
      "type": "error"
    },
    {
      "inputs": [
        {
          "internalType": "address",
          "name": "receiver",
          "type": "address"
        }
      ],
      "name": "ERC721InvalidReceiver",
      "type": "error"
    },
    {
      "inputs": [
        {
          "internalType": "address",
          "name": "sender",
          "type": "address"
        }
      ],
      "name": "ERC721InvalidSender",
      "type": "error"
    },
    {
      "inputs": [
        {
          "internalType": "uint256",
          "name": "tokenId",
          "type": "uint256"
        }
      ],
      "name": "ERC721NonexistentToken",
      "type": "error"
    },
    {
      "anonymous": false,
      "inputs": [
        {
          "indexed": true,
          "internalType": "address",
          "name": "owner",
          "type": "address"
        },
        {
          "indexed": true,
          "internalType": "address",
          "name": "approved",
          "type": "address"
        },
        {
          "indexed": true,
          "internalType": "uint256",
          "name": "tokenId",
          "type": "uint256"
        }
      ],
      "name": "Approval",
      "type": "event"
    },
    {
      "anonymous": false,
      "inputs": [
        {
          "indexed": true,
          "internalType": "address",
          "name": "owner",
          "type": "address"
        },
        {
          "indexed": true,
          "internalType": "address",
          "name": "operator",
          "type": "address"
        },
        {
          "indexed": false,
          "internalType": "bool",
          "name": "approved",
          "type": "bool"
        }
      ],
      "name": "ApprovalForAll",
      "type": "event"
    },
    {
      "anonymous": false,
      "inputs": [
        {
          "indexed": false,
          "internalType": "uint256",
          "name": "_fromTokenId",
          "type": "uint256"
        },
        {
          "indexed": false,
          "internalType": "uint256",
          "name": "_toTokenId",
          "type": "uint256"
        }
      ],
      "name": "BatchMetadataUpdate",
      "type": "event"
    },
    {
      "anonymous": false,
      "inputs": [
        {
          "indexed": false,
          "internalType": "uint256",
          "name": "_tokenId",
          "type": "uint256"
        }
      ],
      "name": "MetadataUpdate",
      "type": "event"
    },
    {
      "anonymous": false,
      "inputs": [
        {
          "indexed": true,
          "internalType": "address",
          "name": "from",
          "type": "address"
        },
        {
          "indexed": true,
          "internalType": "address",
          "name": "to",
          "type": "address"
        },
        {
          "indexed": true,
          "internalType": "uint256",
          "name": "tokenId",
          "type": "uint256"
        }
      ],
      "name": "Transfer",
      "type": "event"
    },
    {
      "inputs": [
        {
          "internalType": "address",
          "name": "to",
          "type": "address"
        },
        {
          "internalType": "uint256",
          "name": "tokenId",
          "type": "uint256"
        }
      ],
      "name": "approve",
      "outputs": [],
      "stateMutability": "nonpayable",
      "type": "function"
    },
    {
      "inputs": [
        {
          "internalType": "address",
          "name": "owner",
          "type": "address"
        }
      ],
      "name": "balanceOf",
      "outputs": [
        {
          "internalType": "uint256",
          "name": "",
          "type": "uint256"
        }
      ],
      "stateMutability": "view",
      "type": "function"
    },
    {
      "inputs": [
        {
          "internalType": "uint256",
          "name": "tokenId",
          "type": "uint256"
        }
      ],
      "name": "getApproved",
      "outputs": [
        {
          "internalType": "address",
          "name": "",
          "type": "address"
        }
      ],
      "stateMutability": "view",
      "type": "function"
    },
    {
      "inputs": [
        {
          "internalType": "address",
          "name": "owner",
          "type": "address"
        },
        {
          "internalType": "address",
          "name": "operator",
          "type": "address"
        }
      ],
      "name": "isApprovedForAll",
      "outputs": [
        {
          "internalType": "bool",
          "name": "",
          "type": "bool"
        }
      ],
      "stateMutability": "view",
      "type": "function"
    },
    {
      "inputs": [
        {
          "internalType": "address",
          "name": "to",
          "type": "address"
        },
        {
          "internalType": "string",
          "name": "tokenURI",
          "type": "string"
        }
      ],
      "name": "mintNFT",
      "outputs": [
        {
          "internalType": "uint256",
          "name": "",
          "type": "uint256"
        }
      ],
      "stateMutability": "nonpayable",
      "type": "function"
    },
    {
      "inputs": [],
      "name": "name",
      "outputs": [
        {
          "internalType": "string",
          "name": "",
          "type": "string"
        }
      ],
      "stateMutability": "view",
      "type": "function"
    },
    {
      "inputs": [
        {
          "internalType": "uint256",
          "name": "tokenId",
          "type": "uint256"
        }
      ],
      "name": "ownerOf",
      "outputs": [
        {
          "internalType": "address",
          "name": "",
          "type": "address"
        }
      ],
      "stateMutability": "view",
      "type": "function"
    },
    {
      "inputs": [
        {
          "internalType": "address",
          "name": "from",
          "type": "address"
        },
        {
          "internalType": "address",
          "name": "to",
          "type": "address"
        },
        {
          "internalType": "uint256",
          "name": "tokenId",
          "type": "uint256"
        }
      ],
      "name": "safeTransferFrom",
      "outputs": [],
      "stateMutability": "nonpayable",
      "type": "function"
    },
    {
      "inputs": [
        {
          "internalType": "address",
          "name": "from",
          "type": "address"
        },
        {
          "internalType": "address",
          "name": "to",
          "type": "address"
        },
        {
          "internalType": "uint256",
          "name": "tokenId",
          "type": "uint256"
        },
        {
          "internalType": "bytes",
          "name": "data",
          "type": "bytes"
        }
      ],
      "name": "safeTransferFrom",
      "outputs": [],
      "stateMutability": "nonpayable",
      "type": "function"
    },
    {
      "inputs": [
        {
          "internalType": "address",
          "name": "operator",
          "type": "address"
        },
        {
          "internalType": "bool",
          "name": "approved",
          "type": "bool"
        }
      ],
      "name": "setApprovalForAll",
      "outputs": [],
      "stateMutability": "nonpayable",
      "type": "function"
    },
    {
      "inputs": [
        {
          "internalType": "bytes4",
          "name": "interfaceId",
          "type": "bytes4"
        }
      ],
      "name": "supportsInterface",
      "outputs": [
        {
          "internalType": "bool",
          "name": "",
          "type": "bool"
        }
      ],
      "stateMutability": "view",
      "type": "function"
    },
    {
      "inputs": [],
      "name": "symbol",
      "outputs": [
        {
          "internalType": "string",
          "name": "",
          "type": "string"
        }
      ],
      "stateMutability": "view",
      "type": "function"
    },
    {
      "inputs": [],
      "name": "tokenCounter",
      "outputs": [
        {
          "internalType": "uint256",
          "name": "",
          "type": "uint256"
        }
      ],
      "stateMutability": "view",
      "type": "function"
    },
    {
      "inputs": [
        {
          "internalType": "uint256",
          "name": "tokenId",
          "type": "uint256"
        }
      ],
      "name": "tokenURI",
      "outputs": [
        {
          "internalType": "string",
          "name": "",
          "type": "string"
        }
      ],
      "stateMutability": "view",
      "type": "function"
    },
    {
      "inputs": [
        {
          "internalType": "address",
          "name": "from",
          "type": "address"
        },
        {
          "internalType": "address",
          "name": "to",
          "type": "address"
        },
        {
          "internalType": "uint256",
          "name": "tokenId",
          "type": "uint256"
        }
      ],
      "name": "transferFrom",
      "outputs": [],
      "stateMutability": "nonpayable",
      "type": "function"
    }
  ],
  "bytecode": "0x608060405234801561001057600080fd5b506040518060400160405280600a81526020017f41756374696f6e4e4654000000000000000000000000000000000000000000008152506040518060400160405280600481526020017f414e465400000000000000000000000000000000000000000000000000000000815250816000908161008c91906102fc565b50806001908161009c91906102fc565b50505060006007819055506103ce565b600081519050919050565b7f4e487b7100000000000000000000000000000000000000000000000000000000600052604160045260246000fd5b7f4e487b7100000000000000000000000000000000000000000000000000000000600052602260045260246000fd5b6000600282049050600182168061012d57607f821691505b6020821081036101405761013f6100e6565b5b50919050565b60008190508160005260206000209050919050565b60006020601f8301049050919050565b600082821b905092915050565b6000600883026101a87fffffffffffffffffffffffffffffffffffffffffffffffffffffffffffffffff8261016b565b6101b2868361016b565b95508019841693508086168417925050509392505050565b6000819050919050565b6000819050919050565b60006101f96101f46101ef846101ca565b6101d4565b6101ca565b9050919050565b6000819050919050565b610213836101de565b61022761021f82610200565b848454610178565b825550505050565b600090565b61023c61022f565b61024781848461020a565b505050565b5b8181101561026b57610260600082610234565b60018101905061024d565b5050565b601f8211156102b05761028181610146565b61028a8461015b565b81016020851015610299578190505b6102ad6102a58561015b565b83018261024c565b50505b505050565b600082821c905092915050565b60006102d3600019846008026102b5565b1980831691505092915050565b60006102ec83836102c2565b9150826002028217905092915050565b610305826100ac565b67ffffffffffffffff81111561031e5761031d6100b7565b5b6103288254610115565b61033382828561026f565b600060209050601f8311600181146103665760008415610354578287015190505b61035e85826102e0565b8655506103c6565b601f19841661037486610146565b60005b8281101561039c57848901518255600182019150602085019450602081019050610377565b868310156103b957848901516103b5601f8916826102c2565b8355505b6001600288020188555050505b505050505050565b612421806103dd6000396000f3fe608060405234801561001057600080fd5b50600436106100f55760003560e01c806370a0823111610097578063c87b56dd11610066578063c87b56dd14610282578063d082e381146102b2578063e985e9c5146102d0578063eacabe1414610300576100f5565b806370a08231146101fc57806395d89b411461022c578063a22cb4651461024a578063b88d4fde14610266576100f5565b8063095ea7b3116100d3578063095ea7b31461017857806323b872dd1461019457806342842e0e146101b05780636352211e146101cc576100f5565b806301ffc9a7146100fa57806306fdde031461012a578063081812fc14610148575b600080fd5b610114600480360381019061010f919061188d565b610330565b60405161012191906118d5565b60405180910390f35b610132610391565b60405161013f9190611980565b60405180910390f35b610162600480360381019061015d91906119d8565b610423565b60405161016f9190611a46565b60405180910390f35b610192600480360381019061018d9190611a8d565b61043f565b005b6101ae60048036038101906101a99190611acd565b610455565b005b6101ca60048036038101906101c59190611acd565b610557565b005b6101e660048036038101906101e191906119d8565b610577565b6040516101f39190611a46565b60405180910390f35b61021660048036038101906102119190611b20565b610589565b6040516102239190611b5c565b60405180910390f35b610234610643565b6040516102419190611980565b60405180910390f35b610264600480360381019061025f9190611ba3565b6106d5565b005b610280600480360381019061027b9190611d18565b6106eb565b005b61029c600480360381019061029791906119d8565b610710565b6040516102a99190611980565b60405180910390f35b6102ba610823565b6040516102c79190611b5c565b60405180910390f35b6102ea60048036038101906102e59190611d9b565b610829565b6040516102f791906118d5565b60405180910390f35b61031a60048036038101906103159190611e7c565b6108bd565b6040516103279190611b5c565b60405180910390f35b6000634906490660e01b7bffffffffffffffffffffffffffffffffffffffffffffffffffffffff1916827bffffffffffffffffffffffffffffffffffffffffffffffffffffffff1916148061038a5750610389826108fd565b5b9050919050565b6060600080546103a090611f07565b80601f01602080910402602001604051908101604052809291908181526020018280546103cc90611f07565b80156104195780601f106103ee57610100808354040283529160200191610419565b820191906000526020600020905b8154815290600101906020018083116103fc57829003601f168201915b5050505050905090565b600061042e826109df565b5061043882610a67565b9050919050565b610451828261044c610aa4565b610aac565b5050565b600073ffffffffffffffffffffffffffffffffffffffff168273ffffffffffffffffffffffffffffffffffffffff16036104c75760006040517f64a0ae920000000000000000000000000000000000000000000000000000000081526004016104be9190611a46565b60405180910390fd5b60006104db83836104d6610aa4565b610abe565b90508373ffffffffffffffffffffffffffffffffffffffff168173ffffffffffffffffffffffffffffffffffffffff1614610551578382826040517f64283d7b00000000000000000000000000000000000000000000000000000000815260040161054893929190611f38565b60405180910390fd5b50505050565b610572838383604051806020016040528060008152506106eb565b505050565b6000610582826109df565b9050919050565b60008073ffffffffffffffffffffffffffffffffffffffff168273ffffffffffffffffffffffffffffffffffffffff16036105fc5760006040517f89c62b640000000000000000000000000000000000000000000000000000000081526004016105f39190611a46565b60405180910390fd5b600360008373ffffffffffffffffffffffffffffffffffffffff1673ffffffffffffffffffffffffffffffffffffffff168152602001908152602001600020549050919050565b60606001805461065290611f07565b80601f016020809104026020016040519081016040528092919081815260200182805461067e90611f07565b80156106cb5780601f106106a0576101008083540402835291602001916106cb565b820191906000526020600020905b8154815290600101906020018083116106ae57829003601f168201915b5050505050905090565b6106e76106e0610aa4565b8383610cd8565b5050565b6106f6848484610455565b61070a610701610aa4565b85858585610e47565b50505050565b606061071b826109df565b50600060066000848152602001908152602001600020805461073c90611f07565b80601f016020809104026020016040519081016040528092919081815260200182805461076890611f07565b80156107b55780601f1061078a576101008083540402835291602001916107b5565b820191906000526020600020905b81548152906001019060200180831161079857829003601f168201915b5050505050905060006107c6610ff8565b905060008151036107db57819250505061081e565b6000825111156108105780826040516020016107f8929190611fab565b6040516020818303038152906040529250505061081e565b6108198461100f565b925050505b919050565b60075481565b6000600560008473ffffffffffffffffffffffffffffffffffffffff1673ffffffffffffffffffffffffffffffffffffffff16815260200190815260200160002060008373ffffffffffffffffffffffffffffffffffffffff1673ffffffffffffffffffffffffffffffffffffffff16815260200190815260200160002060009054906101000a900460ff16905092915050565b60008060075490506108cf8482611078565b6108d98184611096565b6001600760008282546108ec9190611ffe565b925050819055508091505092915050565b60007f80ac58cd000000000000000000000000000000000000000000000000000000007bffffffffffffffffffffffffffffffffffffffffffffffffffffffff1916827bffffffffffffffffffffffffffffffffffffffffffffffffffffffff191614806109c857507f5b5e139f000000000000000000000000000000000000000000000000000000007bffffffffffffffffffffffffffffffffffffffffffffffffffffffff1916827bffffffffffffffffffffffffffffffffffffffffffffffffffffffff1916145b806109d857506109d7826110f2565b5b9050919050565b6000806109eb8361115c565b9050600073ffffffffffffffffffffffffffffffffffffffff168173ffffffffffffffffffffffffffffffffffffffff1603610a5e57826040517f7e273289000000000000000000000000000000000000000000000000000000008152600401610a559190611b5c565b60405180910390fd5b80915050919050565b60006004600083815260200190815260200160002060009054906101000a900473ffffffffffffffffffffffffffffffffffffffff169050919050565b600033905090565b610ab98383836001611199565b505050565b600080610aca8461115c565b9050600073ffffffffffffffffffffffffffffffffffffffff168373ffffffffffffffffffffffffffffffffffffffff1614610b0c57610b0b81848661135e565b5b600073ffffffffffffffffffffffffffffffffffffffff168173ffffffffffffffffffffffffffffffffffffffff1614610b9d57610b4e600085600080611199565b6001600360008373ffffffffffffffffffffffffffffffffffffffff1673ffffffffffffffffffffffffffffffffffffffff168152602001908152602001600020600082825403925050819055505b600073ffffffffffffffffffffffffffffffffffffffff168573ffffffffffffffffffffffffffffffffffffffff1614610c20576001600360008773ffffffffffffffffffffffffffffffffffffffff1673ffffffffffffffffffffffffffffffffffffffff168152602001908152602001600020600082825401925050819055505b846002600086815260200190815260200160002060006101000a81548173ffffffffffffffffffffffffffffffffffffffff021916908373ffffffffffffffffffffffffffffffffffffffff160217905550838573ffffffffffffffffffffffffffffffffffffffff168273ffffffffffffffffffffffffffffffffffffffff167fddf252ad1be2c89b69c2b068fc378daa952ba7f163c4a11628f55a4df523b3ef60405160405180910390a4809150509392505050565b600073ffffffffffffffffffffffffffffffffffffffff168273ffffffffffffffffffffffffffffffffffffffff1603610d4957816040517f5b08ba18000000000000000000000000000000000000000000000000000000008152600401610d409190611a46565b60405180910390fd5b80600560008573ffffffffffffffffffffffffffffffffffffffff1673ffffffffffffffffffffffffffffffffffffffff16815260200190815260200160002060008473ffffffffffffffffffffffffffffffffffffffff1673ffffffffffffffffffffffffffffffffffffffff16815260200190815260200160002060006101000a81548160ff0219169083151502179055508173ffffffffffffffffffffffffffffffffffffffff168373ffffffffffffffffffffffffffffffffffffffff167f17307eab39ab6107e8899845ad3d59bd9653f200f220920489ca2b5937696c3183604051610e3a91906118d5565b60405180910390a3505050565b60008373ffffffffffffffffffffffffffffffffffffffff163b1115610ff1578273ffffffffffffffffffffffffffffffffffffffff1663150b7a02868685856040518563ffffffff1660e01b8152600401610ea69493929190612087565b6020604051808303816000875af1925050508015610ee257506040513d601f19601f82011682018060405250810190610edf91906120e8565b60015b610f66573d8060008114610f12576040519150601f19603f3d011682016040523d82523d6000602084013e610f17565b606091505b506000815103610f5e57836040517f64a0ae92000000000000000000000000000000000000000000000000000000008152600401610f559190611a46565b60405180910390fd5b805181602001fd5b63150b7a0260e01b7bffffffffffffffffffffffffffffffffffffffffffffffffffffffff1916817bffffffffffffffffffffffffffffffffffffffffffffffffffffffff191614610fef57836040517f64a0ae92000000000000000000000000000000000000000000000000000000008152600401610fe69190611a46565b60405180910390fd5b505b5050505050565b606060405180602001604052806000815250905090565b606061101a826109df565b506000611025610ff8565b905060008151116110455760405180602001604052806000815250611070565b8061104f84611422565b604051602001611060929190611fab565b6040516020818303038152906040525b915050919050565b6110928282604051806020016040528060008152506114f0565b5050565b806006600084815260200190815260200160002090816110b691906122c1565b507ff8e1a15aba9398e019f0b49df1a4fde98ee17ae345cb5f6b5e2c27f5033e8ce7826040516110e69190611b5c565b60405180910390a15050565b60007f01ffc9a7000000000000000000000000000000000000000000000000000000007bffffffffffffffffffffffffffffffffffffffffffffffffffffffff1916827bffffffffffffffffffffffffffffffffffffffffffffffffffffffff1916149050919050565b60006002600083815260200190815260200160002060009054906101000a900473ffffffffffffffffffffffffffffffffffffffff169050919050565b80806111d25750600073ffffffffffffffffffffffffffffffffffffffff168273ffffffffffffffffffffffffffffffffffffffff1614155b156113065760006111e2846109df565b9050600073ffffffffffffffffffffffffffffffffffffffff168373ffffffffffffffffffffffffffffffffffffffff161415801561124d57508273ffffffffffffffffffffffffffffffffffffffff168173ffffffffffffffffffffffffffffffffffffffff1614155b8015611260575061125e8184610829565b155b156112a257826040517fa9fbf51f0000000000000000000000000000000000000000000000000000000081526004016112999190611a46565b60405180910390fd5b811561130457838573ffffffffffffffffffffffffffffffffffffffff168273ffffffffffffffffffffffffffffffffffffffff167f8c5be1e5ebec7d5bd14f71427d1e84f3dd0314c0f7b2291e5b200ac8c7c3b92560405160405180910390a45b505b836004600085815260200190815260200160002060006101000a81548173ffffffffffffffffffffffffffffffffffffffff021916908373ffffffffffffffffffffffffffffffffffffffff16021790555050505050565b611369838383611514565b61141d57600073ffffffffffffffffffffffffffffffffffffffff168373ffffffffffffffffffffffffffffffffffffffff16036113de57806040517f7e2732890000000000000000000000000000000000000000000000000000000081526004016113d59190611b5c565b60405180910390fd5b81816040517f177e802f000000000000000000000000000000000000000000000000000000008152600401611414929190612393565b60405180910390fd5b505050565b606060006001611431846115d5565b01905060008167ffffffffffffffff8111156114505761144f611bed565b5b6040519080825280601f01601f1916602001820160405280156114825781602001600182028036833780820191505090505b509050600082602001820190505b6001156114e5578080600190039150507f3031323334353637383961626364656600000000000000000000000000000000600a86061a8153600a85816114d9576114d86123bc565b5b04945060008503611490575b819350505050919050565b6114fa8383611728565b61150f611505610aa4565b6000858585610e47565b505050565b60008073ffffffffffffffffffffffffffffffffffffffff168373ffffffffffffffffffffffffffffffffffffffff16141580156115cc57508273ffffffffffffffffffffffffffffffffffffffff168473ffffffffffffffffffffffffffffffffffffffff16148061158d575061158c8484610829565b5b806115cb57508273ffffffffffffffffffffffffffffffffffffffff166115b383610a67565b73ffffffffffffffffffffffffffffffffffffffff16145b5b90509392505050565b600080600090507a184f03e93ff9f4daa797ed6e38ed64bf6a1f0100000000000000008310611633577a184f03e93ff9f4daa797ed6e38ed64bf6a1f0100000000000000008381611629576116286123bc565b5b0492506040810190505b6d04ee2d6d415b85acef81000000008310611670576d04ee2d6d415b85acef81000000008381611666576116656123bc565b5b0492506020810190505b662386f26fc10000831061169f57662386f26fc100008381611695576116946123bc565b5b0492506010810190505b6305f5e10083106116c8576305f5e10083816116be576116bd6123bc565b5b0492506008810190505b61271083106116ed5761271083816116e3576116e26123bc565b5b0492506004810190505b606483106117105760648381611706576117056123bc565b5b0492506002810190505b600a831061171f576001810190505b80915050919050565b600073ffffffffffffffffffffffffffffffffffffffff168273ffffffffffffffffffffffffffffffffffffffff160361179a5760006040517f64a0ae920000000000000000000000000000000000000000000000000000000081526004016117919190611a46565b60405180910390fd5b60006117a883836000610abe565b9050600073ffffffffffffffffffffffffffffffffffffffff168173ffffffffffffffffffffffffffffffffffffffff161461181c5760006040517f73c6ac6e0000000000000000000000000000000000000000000000000000000081526004016118139190611a46565b60405180910390fd5b505050565b6000604051905090565b600080fd5b600080fd5b60007fffffffff0000000000000000000000000000000000000000000000000000000082169050919050565b61186a81611835565b811461187557600080fd5b50565b60008135905061188781611861565b92915050565b6000602082840312156118a3576118a261182b565b5b60006118b184828501611878565b91505092915050565b60008115159050919050565b6118cf816118ba565b82525050565b60006020820190506118ea60008301846118c6565b92915050565b600081519050919050565b600082825260208201905092915050565b60005b8381101561192a57808201518184015260208101905061190f565b60008484015250505050565b6000601f19601f8301169050919050565b6000611952826118f0565b61195c81856118fb565b935061196c81856020860161190c565b61197581611936565b840191505092915050565b6000602082019050818103600083015261199a8184611947565b905092915050565b6000819050919050565b6119b5816119a2565b81146119c057600080fd5b50565b6000813590506119d2816119ac565b92915050565b6000602082840312156119ee576119ed61182b565b5b60006119fc848285016119c3565b91505092915050565b600073ffffffffffffffffffffffffffffffffffffffff82169050919050565b6000611a3082611a05565b9050919050565b611a4081611a25565b82525050565b6000602082019050611a5b6000830184611a37565b92915050565b611a6a81611a25565b8114611a7557600080fd5b50565b600081359050611a8781611a61565b92915050565b60008060408385031215611aa457611aa361182b565b5b6000611ab285828601611a78565b9250506020611ac3858286016119c3565b9150509250929050565b600080600060608486031215611ae657611ae561182b565b5b6000611af486828701611a78565b9350506020611b0586828701611a78565b9250506040611b16868287016119c3565b9150509250925092565b600060208284031215611b3657611b3561182b565b5b6000611b4484828501611a78565b91505092915050565b611b56816119a2565b82525050565b6000602082019050611b716000830184611b4d565b92915050565b611b80816118ba565b8114611b8b57600080fd5b50565b600081359050611b9d81611b77565b92915050565b60008060408385031215611bba57611bb961182b565b5b6000611bc885828601611a78565b9250506020611bd985828601611b8e565b9150509250929050565b600080fd5b600080fd5b7f4e487b7100000000000000000000000000000000000000000000000000000000600052604160045260246000fd5b611c2582611936565b810181811067ffffffffffffffff82111715611c4457611c43611bed565b5b80604052505050565b6000611c57611821565b9050611c638282611c1c565b919050565b600067ffffffffffffffff821115611c8357611c82611bed565b5b611c8c82611936565b9050602081019050919050565b82818337600083830152505050565b6000611cbb611cb684611c68565b611c4d565b905082815260208101848484011115611cd757611cd6611be8565b5b611ce2848285611c99565b509392505050565b600082601f830112611cff57611cfe611be3565b5b8135611d0f848260208601611ca8565b91505092915050565b60008060008060808587031215611d3257611d3161182b565b5b6000611d4087828801611a78565b9450506020611d5187828801611a78565b9350506040611d62878288016119c3565b925050606085013567ffffffffffffffff811115611d8357611d82611830565b5b611d8f87828801611cea565b91505092959194509250565b60008060408385031215611db257611db161182b565b5b6000611dc085828601611a78565b9250506020611dd185828601611a78565b9150509250929050565b600067ffffffffffffffff821115611df657611df5611bed565b5b611dff82611936565b9050602081019050919050565b6000611e1f611e1a84611ddb565b611c4d565b905082815260208101848484011115611e3b57611e3a611be8565b5b611e46848285611c99565b509392505050565b600082601f830112611e6357611e62611be3565b5b8135611e73848260208601611e0c565b91505092915050565b60008060408385031215611e9357611e9261182b565b5b6000611ea185828601611a78565b925050602083013567ffffffffffffffff811115611ec257611ec1611830565b5b611ece85828601611e4e565b9150509250929050565b7f4e487b7100000000000000000000000000000000000000000000000000000000600052602260045260246000fd5b60006002820490506001821680611f1f57607f821691505b602082108103611f3257611f31611ed8565b5b50919050565b6000606082019050611f4d6000830186611a37565b611f5a6020830185611b4d565b611f676040830184611a37565b949350505050565b600081905092915050565b6000611f85826118f0565b611f8f8185611f6f565b9350611f9f81856020860161190c565b80840191505092915050565b6000611fb78285611f7a565b9150611fc38284611f7a565b91508190509392505050565b7f4e487b7100000000000000000000000000000000000000000000000000000000600052601160045260246000fd5b6000612009826119a2565b9150612014836119a2565b925082820190508082111561202c5761202b611fcf565b5b92915050565b600081519050919050565b600082825260208201905092915050565b600061205982612032565b612063818561203d565b935061207381856020860161190c565b61207c81611936565b840191505092915050565b600060808201905061209c6000830187611a37565b6120a96020830186611a37565b6120b66040830185611b4d565b81810360608301526120c8818461204e565b905095945050505050565b6000815190506120e281611861565b92915050565b6000602082840312156120fe576120fd61182b565b5b600061210c848285016120d3565b91505092915050565b60008190508160005260206000209050919050565b60006020601f8301049050919050565b600082821b905092915050565b6000600883026121777fffffffffffffffffffffffffffffffffffffffffffffffffffffffffffffffff8261213a565b612181868361213a565b95508019841693508086168417925050509392505050565b6000819050919050565b60006121be6121b96121b4846119a2565b612199565b6119a2565b9050919050565b6000819050919050565b6121d8836121a3565b6121ec6121e4826121c5565b848454612147565b825550505050565b600090565b6122016121f4565b61220c8184846121cf565b505050565b5b81811015612230576122256000826121f9565b600181019050612212565b5050565b601f8211156122755761224681612115565b61224f8461212a565b8101602085101561225e578190505b61227261226a8561212a565b830182612211565b50505b505050565b600082821c905092915050565b60006122986000198460080261227a565b1980831691505092915050565b60006122b18383612287565b9150826002028217905092915050565b6122ca826118f0565b67ffffffffffffffff8111156122e3576122e2611bed565b5b6122ed8254611f07565b6122f8828285612234565b600060209050601f83116001811461232b5760008415612319578287015190505b61232385826122a5565b86555061238b565b601f19841661233986612115565b60005b828110156123615784890151825560018201915060208501945060208101905061233c565b8683101561237e578489015161237a601f891682612287565b8355505b6001600288020188555050505b505050505050565b60006040820190506123a86000830185611a37565b6123b56020830184611b4d565b9392505050565b7f4e487b7100000000000000000000000000000000000000000000000000000000600052601260045260246000fdfea264697066735822122030ad5fd55272a211c3cdb353e03b47524242c0937ccfa847ab57b633c83c305264736f6c634300081c0033",
  "linkReferences": {},
  "deployedLinkReferences": {}
}